:02000000DE2AF6
:10000800FF00030E8301C5000A08C6008A010C1C04
:100018001128BB0A0319BC0A0C1046088A00450EB1
:080028008300FF0E7F0E0900AA
:0400300000000800C4
:10003400083083120313FC002330FD00FD0B20283D
:06004400FC0B202808005F
:10004A00103083120313FD00FD0B2928000008005D
:10005A0083120313D51B3328851034288514551BA6
:10006A003828051039280514D51A3D2805113E28C7
:10007A000515551A4228851143288515431847281E
:10008A00861448288610061418200610D5194F28F9
:10009A00851050288514551954280510552805141B
:1000AA00D518592805115A28051555185E2885119D
:1000BA005F28851543186328861464288610061459
:1000CA0018200610431C6B281A206C2825200800CB
:1000DA008312031343105408D5002D20431408003B
:1000EA0083120313FB01FA01F901F801A001730D50
:1000FA00F80D7408F8027508031C750FF9027608E2
:10010A00031C760FFA027708031C770FFB02000123
:10011A00031C0130A002F30D0730FC00730DF80D2B
:10012A00F90DFA0DFB0DA00D7408731CAE28F80228
:10013A007508031C750FF9027608031C760FFA027C
:10014A007708031C770FFB020001031C0130A00291
:10015A00BF28F80775080318750FF90776080318FA
:10016A00760FFA0777080318770FFB0700010318C1
:10017A000130A007F30DFC0B9328720DF80DF90D51
:10018A00FA0DFB0DA00D7408731CDD28F802750822
:10019A00031C750FF9027608031C760FFA0277081A
:1001AA00031C770FFB020001031C0130A002EE289A
:1001BA00F80775080318750FF90776080318760FFC
:1001CA00FA0777080318770FFB07000103180130B5
:1001DA00A007F20D0730FC00720DF80DF90DFA0DAB
:1001EA00FB0DA00D7408721C0C29F8027508031C7B
:1001FA00750FF9027608031C760FFA027708031CBA
:10020A00770FFB020001031C0130A0021D29F80729
:10021A0075080318750FF90776080318760FFA0799
:10022A0077080318770FFB07000103180130A007AE
:10023A00F20DFC0BF128710DF80DF90DFA0DFB0DFD
:10024A00A00D7408721C3B29F8027508031C750F6F
:10025A00F9027608031C760FFA027708031C770F57
:10026A00FB020001031C0130A0024C29F8077508A3
:10027A000318750FF90776080318760FFA07770837
:10028A000318770FFB07000103180130A007F10DCF
:10029A000730FC00710DF80DF90DFA0DFB0DA00DDC
:1002AA007408711C6A29F8027508031C750FF90293
:1002BA007608031C760FFA027708031C770FFB02F5
:1002CA000001031C0130A0027B29F80775080318F6
:1002DA00750FF90776080318760FFA0777080318D7
:1002EA00770FFB07000103180130A007F10DFC0B83
:1002FA004F29700DF80DF90DFA0DFB0DA00D7408BC
:10030A00711C9929F8027508031C750FF902760801
:10031A00031C760FFA027708031C770FFB02000111
:10032A00031C0130A002AA29F80775080318750FE3
:10033A00F90776080318760FFA0777080318770F74
:10034A00FB07000103180130A007F00D0730FC007D
:10035A00700DF80DF90DFA0DFB0DA00D7408701C47
:10036A00C829F8027508031C750FF9027608031CE0
:10037A00760FFA027708031C770FFB020001031CB1
:10038A000130A002D929F80775080318750FF90773
:10039A0076080318760FFA0777080318770FFB0712
:1003AA00000103180130A007F00DFC0BAD297018ED
:1003BA00EC297408F80775080318750FF907760809
:1003CA000318760FFA0777080318770FFB07080058
:1003DA00831203132230FC00F801F901FA01FB0130
:1003EA00FC030319232A0310FB0CFA0CF90CF80C72
:1003FA00F30CF20CF10CF00C031CF529FC030319A5
:10040A00152A7408F80775080318750FF90776088E
:10041A000318760FFA0777080318770FFB07F929ED
:10042A007408F80775080318750FF9077608031892
:0E043A00760FFA0777080318770FFB07080004
:1004480083160313061086108511051105108510F3
:1004580083120610861085100510051185111A20C3
:100468001A201A20051585150614182006101A20BA
:100478000614182006101A200614182006101A2030
:1004880085110614182006101A20061418200610C4
:10049800051185140614182006101A2085108515D4
:1004A80006141820061085110614182006101A20A4
:1004B80006141820061085150614182006101A2090
:1004C80085110614182006108514051405158515C0
:0C04D8000614182006101A204314080017
:1004E400831203135008013A031D7B2A8030D00085
:1004F400922A5008023A031D822AC030D000922A60
:100504005008033A031D892A9430D000922A5008D7
:10051400043A031D902AD430D000922A8030D000AF
:100524005103F0005008F0077008D000431470081D
:10053400D5002D2043105208D5002D204314080067
:10054400831203135008013A031DAB2A8030D000F4
:10055400C22A5008023A031DB22AC030D000C22A6F
:100564005008033A031DB92A9430D000C22A500817
:10057400043A031DC02AD430D000C22A8030D000EF
:100584005103F0005008F0077008D0007008D5003F
:100594002D204310D3015308520784000008003A69
:1005A4000319DC2A5308520784000008D4006D2084
:0805B400D30ACD2A431408000C
:1005BC000730831203139F002030831685004C30C4
:1005CC008600363083129000013083168C00C030C8
:1005DC008B0024228230FC00DD30FD00FD0BF42A60
:1005EC00FC0BF42A000000000130D5002D200C304B
:1005FC00D5002D20061D162B4030C4000230D00033
:10060C000130D1003130C7002F30C8003630C9005E
:10061C003430CA00CB014730D200A2220513192B6B
:10062C000130C4000517BB01BC018F018E01861D72
:10063C00732B2030AA003130AB003030AC0030309E
:10064C00AD006D30AE007330AF00B0013730BD007F
:10065C003630C2008B1737309000BE01BF01C0018D
:10066C00C1010030F0004106031D462B7008400606
:10067C00031D462B09303F06031D462B3E08833ACB
:10068C000319602B3E08F0003F08F1004008F2000F
:10069C004108F300F00A0319F10A0319F20A0319CD
:1006AC00F30A7008BE007108BF007208C00073081E
:1006BC00C100372B0000000000000000000000000B
:1006CC00000000000000000000000000000000001E
:1006DC000000420890008B13972B0730BD000630AA
:1006EC00C2003130AA003030AB003030AC003030BA
:1006FC00AD006D30AE007330AF00B0018B1707301A
:10070C0090000630FB001330FC00AD30FD00FD0BFB
:10071C008D2BFC0B8D2BFB0B8D2B000042089000BE
:10072C008B130F08F100F00170080E07A5000030C4
:10073C000318013E7107A600861DEA2B2508F00060
:10074C002608F100F201F3015030F400F501F60136
:10075C00F701ED214408F400F501F601F701ED2154
:10076C007008CC007108CD007208CE007308CF0061
:10077C000030F0000030F1005030F2000030F30097
:10078C003B08F4003C08F500F601F701ED214408A4
:10079C00F400F501F601F701ED214C08A1004D081C
:1007AC00A2004E08A3004F08A4007008A10771080E
:1007BC000318710FA20772080318720FA3077308AE
:1007CC000318730FA407202C2508F0002608F1004D
:1007DC00F201F3014408F400F501F601F701ED21F3
:1007EC007008CC007108CD007208CE007308CF00E1
:1007FC003C08F3003B08F200F001F1014408F4005E
:10080C00F501F601F701ED214C08A1004D08A200FD
:10081C004E08A3004F08A4007008A1077108031824
:10082C00710FA20772080318720FA307730803183D
:10083C00730FA4070030F400E130F500F530F6003A
:10084C000530F7002108F0002208F1002308F2001F
:10085C002408F30075207008A7007008003C0318EA
:10086C00402C0130D0000130D1002708303ED2009E
:10087C007222472C0130D0000130D1002030D20040
:10088C0072228030F4009630F5009830F60000307B
:10089C00F7002108F0002208F1002308F2002408D8
:1008AC00F30075200A30F400F501F601F70175200C
:1008BC007808F0007908F1007A08F2007B08F30060
:1008CC007008A9007008003C0318752C0130D0008A
:1008DC000230D1002908303ED2007222882C270821
:1008EC00003C0318812C0130D0000230D100303094
:1008FC00D2007222882C0130D0000230D10020307E
:10090C00D20072224030F4004230F5000F30F60075
:10091C000030F7002108F0002208F1002308F20053
:10092C002408F30075200A30F400F501F601F701F4
:10093C0075207808F0007908F1007A08F2007B083D
:10094C00F3007008A8007008003C0318C32C28089A
:10095C00303ED4006D202E30D4006D200130D000FC
:10096C000E30D1004D30C7004830C8007A30C90075
:10097C00CA014730D200A222252D2708003C0318BB
:10098C00E02C0130D0000330D1003030D200722284
:10099C002E30D4006D200130D0000E30D1004D30FF
:1009AC00C7004830C8007A30C900CA014730D200AD
:1009BC00A222252D2908003C0318FD2C0130D00063
:1009CC000330D1003030D20072222E30D4006D2092
:1009DC000130D0000E30D1004D30C7004830C80077
:1009EC007A30C900CA014730D200A222252D01302D
:1009FC00D0000E30D1004B30C7004830C8007A30E0
:100A0C00C900CA014730D200A2220130D000033005
:100A1C00D1002030C7002030C800C9014730D200B7
:100A2C00A2220130D0000E30D1004B30C70048302C
:100A3C00C8007A30C900CA014730D200A222A030C7
:100A4C00F4008630F5000130F6000030F700210884
:100A5C00F0002208F1002308F2002408F3007520AE
:100A6C000A30F400F501F601F70175207808F00062
:100A7C007908F1007A08F2007B08F3007008A700EF
:100A8C000130D0000530D1007008303ED200722207
:100A9C001030F4002730F500F601F7012108F000C2
:100AAC002208F1002308F2002408F30075200A3014
:100ABC00F400F501F601F70175207808F0007908CB
:100ACC00F1007A08F2007B08F3007008A7007008A8
:100ADC00303ED4006D20E830F4000330F500F60110
:100AEC00F7012108F0002208F1002308F200240885
:100AFC00F30075200A30F400F501F601F7017520BA
:100B0C007808F0007908F1007A08F2007B08F3000D
:100B1C007008A7007008303ED4006D204408013CDA
:100B2C000318992DFC2D2E30D4006D206430F40068
:100B3C00F501F601F7012108F0002208F100230865
:100B4C00F2002408F30075200A30F400F501F601D8
:100B5C00F70175207808F0007908F1007A08F200A6
:100B6C007B08F3007008A7007008303ED4006D209D
:100B7C000A30F400F501F601F7012108F000220813
:100B8C00F1002308F2002408F30075200A30F40069
:100B9C00F501F601F70175207808F0007908F100ED
:100BAC007A08F2007B08F3007008A7007008303E4A
:100BBC00D4006D200A30F400F501F601F70121088C
:100BCC00F0002208F1002308F2002408F30075203D
:100BDC007808F0007908F1007A08F2007B08F3003D
:100BEC007008A7007008303ED4006D200230D00091
:100BFC000B30D1002A30D200A2228230FC00DD3032
:100C0C00FD00FD0B072EFC0B072E00000000192B1E
:020C1C000E2E9A
:02400E0043214C
:020000040000FA
:10420000FF00FF00FF00FF00FF00FF00FF00FF00B6
:10421000FF00FF00FF00FF00FF00FF00FF00FF00A6
:10422000FF00FF00FF00FF00FF00FF00FF00FF0096
:10423000FF00FF00FF00FF00FF00FF00FF00FF0086
:10424000FF00FF00FF00FF00FF00FF00FF00FF0076
:10425000FF00FF00FF00FF00FF00FF00FF00FF0066
:10426000FF00FF00FF00FF00FF00FF00FF00FF0056
:10427000FF00FF00FF00FF00FF00FF00FF00FF0046
:10428000FF00FF00FF00FF00FF00FF00FF00FF0036
:10429000FF00FF00FF00FF00FF00FF00FF00FF0026
:1042A000FF00FF00FF00FF00FF00FF00FF00FF0016
:1042B000FF00FF00FF00FF00FF00FF00FF00FF0006
:1042C000FF00FF00FF00FF00FF00FF00FF00FF00F6
:1042D000FF00FF00FF00FF00FF00FF00FF00FF00E6
:1042E000FF00FF00FF00FF00FF00FF00FF00FF00D6
:1042F000FF00FF00FF00FF00FF00FF00FF00FF00C6
:00000001FF

